{
  "contractName": "AnnonceContract",
  "abi": [
    {
      "anonymous": false,
      "inputs": [
        {
          "indexed": false,
          "internalType": "address",
          "name": "_owner",
          "type": "address"
        },
        {
          "indexed": false,
          "internalType": "string",
          "name": "_N_titre",
          "type": "string"
        }
      ],
      "name": "Add",
      "type": "event"
    },
    {
      "inputs": [
        {
          "internalType": "address",
          "name": "",
          "type": "address"
        },
        {
          "internalType": "uint256",
          "name": "",
          "type": "uint256"
        }
      ],
      "name": "__ownerImmobiliers",
      "outputs": [
        {
          "internalType": "address",
          "name": "ownerAddress",
          "type": "address"
        },
        {
          "internalType": "string",
          "name": "N_titre",
          "type": "string"
        }
      ],
      "stateMutability": "view",
      "type": "function"
    },
    {
      "inputs": [
        {
          "internalType": "address",
          "name": "propertyOwner",
          "type": "address"
        },
        {
          "internalType": "string",
          "name": "_N_titre",
          "type": "string"
        }
      ],
      "name": "addImmobilier",
      "outputs": [],
      "stateMutability": "nonpayable",
      "type": "function"
    },
    {
      "inputs": [
        {
          "internalType": "string",
          "name": "str1",
          "type": "string"
        },
        {
          "internalType": "string",
          "name": "str2",
          "type": "string"
        }
      ],
      "name": "compareStrings",
      "outputs": [
        {
          "internalType": "bool",
          "name": "",
          "type": "bool"
        }
      ],
      "stateMutability": "pure",
      "type": "function"
    },
    {
      "inputs": [
        {
          "internalType": "address",
          "name": "_Buyer",
          "type": "address"
        },
        {
          "internalType": "address",
          "name": "_propertyOwner",
          "type": "address"
        },
        {
          "internalType": "string",
          "name": "_N_titre",
          "type": "string"
        }
      ],
      "name": "transferImmobilier",
      "outputs": [
        {
          "internalType": "bool",
          "name": "",
          "type": "bool"
        }
      ],
      "stateMutability": "payable",
      "type": "function"
    }
  ],
  "bytecode": "0x608060405234801561001057600080fd5b50610e69806100206000396000f3fe60806040526004361061003f5760003560e01c806354eefe9c1461004457806363a39d9514610082578063ad1dac33146100ab578063bed34bba146100db575b600080fd5b34801561005057600080fd5b5061006b60048036038101906100669190610912565b610118565b6040516100799291906109fa565b60405180910390f35b34801561008e57600080fd5b506100a960048036038101906100a49190610b5f565b610201565b005b6100c560048036038101906100c09190610bbb565b61033c565b6040516100d29190610c45565b60405180910390f35b3480156100e757600080fd5b5061010260048036038101906100fd9190610c60565b61072e565b60405161010f9190610c45565b60405180910390f35b6000602052816000526040600020818154811061013457600080fd5b9060005260206000209060020201600091509150508060000160009054906101000a900473ffffffffffffffffffffffffffffffffffffffff169080600101805461017e90610d07565b80601f01602080910402602001604051908101604052809291908181526020018280546101aa90610d07565b80156101f75780601f106101cc576101008083540402835291602001916101f7565b820191906000526020600020905b8154815290600101906020018083116101da57829003601f168201915b5050505050905082565b600060405180604001604052808473ffffffffffffffffffffffffffffffffffffffff1681526020018381525090506000808473ffffffffffffffffffffffffffffffffffffffff1673ffffffffffffffffffffffffffffffffffffffff16815260200190815260200160002081908060018154018082558091505060019003906000526020600020906002020160009091909190915060008201518160000160006101000a81548173ffffffffffffffffffffffffffffffffffffffff021916908373ffffffffffffffffffffffffffffffffffffffff16021790555060208201518160010190805190602001906102fb929190610787565b5050507f642fae9d0bdca764daf250fc90831d6e88318a4ce78836d46fbbf63c282c6c20338360405161032f9291906109fa565b60405180910390a1505050565b600080600090505b6000808573ffffffffffffffffffffffffffffffffffffffff1673ffffffffffffffffffffffffffffffffffffffff16815260200190815260200160002080549050811015610721576104806000808673ffffffffffffffffffffffffffffffffffffffff1673ffffffffffffffffffffffffffffffffffffffff16815260200190815260200160002082815481106103e0576103df610d39565b5b906000526020600020906002020160010180546103fc90610d07565b80601f016020809104026020016040519081016040528092919081815260200182805461042890610d07565b80156104755780601f1061044a57610100808354040283529160200191610475565b820191906000526020600020905b81548152906001019060200180831161045857829003601f168201915b50505050508461072e565b1561070e57600060405180604001604052808773ffffffffffffffffffffffffffffffffffffffff1681526020016000808873ffffffffffffffffffffffffffffffffffffffff1673ffffffffffffffffffffffffffffffffffffffff16815260200190815260200160002084815481106104fe576104fd610d39565b5b9060005260206000209060020201600101805461051a90610d07565b80601f016020809104026020016040519081016040528092919081815260200182805461054690610d07565b80156105935780601f1061056857610100808354040283529160200191610593565b820191906000526020600020905b81548152906001019060200180831161057657829003601f168201915b505050505081525090506000808773ffffffffffffffffffffffffffffffffffffffff1673ffffffffffffffffffffffffffffffffffffffff16815260200190815260200160002081908060018154018082558091505060019003906000526020600020906002020160009091909190915060008201518160000160006101000a81548173ffffffffffffffffffffffffffffffffffffffff021916908373ffffffffffffffffffffffffffffffffffffffff1602179055506020820151816001019080519060200190610668929190610787565b5050506000808673ffffffffffffffffffffffffffffffffffffffff1673ffffffffffffffffffffffffffffffffffffffff16815260200190815260200160002082815481106106bb576106ba610d39565b5b9060005260206000209060020201600080820160006101000a81549073ffffffffffffffffffffffffffffffffffffffff0219169055600182016000610701919061080d565b5050600192505050610727565b808061071990610d97565b915050610344565b50600090505b9392505050565b6000816040516020016107419190610e1c565b60405160208183030381529060405280519060200120836040516020016107689190610e1c565b6040516020818303038152906040528051906020012014905092915050565b82805461079390610d07565b90600052602060002090601f0160209004810192826107b557600085556107fc565b82601f106107ce57805160ff19168380011785556107fc565b828001600101855582156107fc579182015b828111156107fb5782518255916020019190600101906107e0565b5b509050610809919061084d565b5090565b50805461081990610d07565b6000825580601f1061082b575061084a565b601f016020900490600052602060002090810190610849919061084d565b5b50565b5b8082111561086657600081600090555060010161084e565b5090565b6000604051905090565b600080fd5b600080fd5b600073ffffffffffffffffffffffffffffffffffffffff82169050919050565b60006108a98261087e565b9050919050565b6108b98161089e565b81146108c457600080fd5b50565b6000813590506108d6816108b0565b92915050565b6000819050919050565b6108ef816108dc565b81146108fa57600080fd5b50565b60008135905061090c816108e6565b92915050565b6000806040838503121561092957610928610874565b5b6000610937858286016108c7565b9250506020610948858286016108fd565b9150509250929050565b61095b8161089e565b82525050565b600081519050919050565b600082825260208201905092915050565b60005b8381101561099b578082015181840152602081019050610980565b838111156109aa576000848401525b50505050565b6000601f19601f8301169050919050565b60006109cc82610961565b6109d6818561096c565b93506109e681856020860161097d565b6109ef816109b0565b840191505092915050565b6000604082019050610a0f6000830185610952565b8181036020830152610a2181846109c1565b90509392505050565b600080fd5b600080fd5b7f4e487b7100000000000000000000000000000000000000000000000000000000600052604160045260246000fd5b610a6c826109b0565b810181811067ffffffffffffffff82111715610a8b57610a8a610a34565b5b80604052505050565b6000610a9e61086a565b9050610aaa8282610a63565b919050565b600067ffffffffffffffff821115610aca57610ac9610a34565b5b610ad3826109b0565b9050602081019050919050565b82818337600083830152505050565b6000610b02610afd84610aaf565b610a94565b905082815260208101848484011115610b1e57610b1d610a2f565b5b610b29848285610ae0565b509392505050565b600082601f830112610b4657610b45610a2a565b5b8135610b56848260208601610aef565b91505092915050565b60008060408385031215610b7657610b75610874565b5b6000610b84858286016108c7565b925050602083013567ffffffffffffffff811115610ba557610ba4610879565b5b610bb185828601610b31565b9150509250929050565b600080600060608486031215610bd457610bd3610874565b5b6000610be2868287016108c7565b9350506020610bf3868287016108c7565b925050604084013567ffffffffffffffff811115610c1457610c13610879565b5b610c2086828701610b31565b9150509250925092565b60008115159050919050565b610c3f81610c2a565b82525050565b6000602082019050610c5a6000830184610c36565b92915050565b60008060408385031215610c7757610c76610874565b5b600083013567ffffffffffffffff811115610c9557610c94610879565b5b610ca185828601610b31565b925050602083013567ffffffffffffffff811115610cc257610cc1610879565b5b610cce85828601610b31565b9150509250929050565b7f4e487b7100000000000000000000000000000000000000000000000000000000600052602260045260246000fd5b60006002820490506001821680610d1f57607f821691505b60208210811415610d3357610d32610cd8565b5b50919050565b7f4e487b7100000000000000000000000000000000000000000000000000000000600052603260045260246000fd5b7f4e487b7100000000000000000000000000000000000000000000000000000000600052601160045260246000fd5b6000610da2826108dc565b91507fffffffffffffffffffffffffffffffffffffffffffffffffffffffffffffffff821415610dd557610dd4610d68565b5b600182019050919050565b600081905092915050565b6000610df682610961565b610e008185610de0565b9350610e1081856020860161097d565b80840191505092915050565b6000610e288284610deb565b91508190509291505056fea26469706673582212209db2de629d5882e55ff3638e0e5b8f733457e9f54495d37e2654ed05d8b35fdd64736f6c634300080a0033",
  "immutableReferences": {},
  "source": "// SPDX-License-Identifier: MIT\r\npragma solidity >=0.4.22 <0.9.0;\r\n\r\ncontract AnnonceContract {\r\n  \r\n\r\n  \r\nstruct Immobilier\r\n    {\r\n        address ownerAddress;\r\n        string N_titre;\r\n    }\r\n    event Add(address _owner, string _N_titre);\r\n    mapping (address => Immobilier[]) public __ownerImmobiliers;\r\n\r\n  function addImmobilier(address propertyOwner,string memory _N_titre) public\r\n    {\r\n        Immobilier memory MyImmobilier = Immobilier(\r\n        {\r\n        ownerAddress: propertyOwner,\r\n        N_titre: _N_titre\r\n        });\r\n        __ownerImmobiliers[propertyOwner].push(MyImmobilier);\r\n        emit Add(msg.sender, _N_titre);\r\n    }\r\n    \r\n    function compareStrings(string memory str1, string memory str2) public pure returns (bool) {\r\n        return (keccak256(abi.encodePacked((str1))) == keccak256(abi.encodePacked((str2))));\r\n    }\r\n   \r\n    function transferImmobilier(address _Buyer,address _propertyOwner, string memory _N_titre) payable public returns (bool)\r\n    {\r\n        for(uint i=0; i < __ownerImmobiliers[_propertyOwner].length;i++)\r\n        {\r\n            if (compareStrings(__ownerImmobiliers[_propertyOwner][i].N_titre, _N_titre))\r\n            {\r\n                Immobilier memory myImmobilier= Immobilier(\r\n                {\r\n                ownerAddress:_Buyer,\r\n                N_titre: __ownerImmobiliers[_propertyOwner][i].N_titre\r\n                });\r\n                __ownerImmobiliers[_Buyer].push(myImmobilier);\r\n                delete __ownerImmobiliers[_propertyOwner][i];      // ici on supprimer l'immobilier pour _propertyOwner\r\n                return true;\r\n            }\r\n }\r\n        return false;\r\n\r\n    }\r\n}\r\n",
  "sourcePath": "C:\\Users\\ALI\\Desktop\\LSI\\S3\\EL ACHAQ\\ContractService\\contracts\\AnnonceContract.sol",
  "compiler": {
    "name": "solc",
    "version": "0.8.10+commit.fc410830.Emscripten.clang"
  },
  "schemaVersion": "3.4.4",
  "updatedAt": "2022-02-01T20:48:06.272Z",
  "devdoc": {
    "kind": "dev",
    "methods": {},
    "version": 1
  },
  "userdoc": {
    "kind": "user",
    "methods": {},
    "version": 1
  }
}